:1000000045C100005FC100005DC100005BC1000090
:1000100059C1000057C1000055C1000053C1000084
:1000200051C100004FC100004DC100004BC1000094
:1000300049C1000047C1000045C1000043C10000A4
:1000400041C100003FC100003DC100003BC10000B4
:1000500039C1000037C1000035C10000CFC2000027
:1000600031C100002FC100002DC100002BC10000D4
:1000700029C1000027C1000025C1000023C10000E4
:1000800021C100001FC100001DC100001BC10000F4
:1000900019C1000017C1000015C1000013C1000004
:1000A00011C100000FC100000DC1000000000000E0
:1000B0000000005F00000007000700147F147F1499
:1000C000242A7F2A122313086462364955225000DD
:1000D00005030000001C2241000041221C001408FE
:1000E0003E081408083E08080050300000080808C0
:1000F0000808006060000020100804023E514945D5
:100100003E00427F400042615149462141454B310A
:100110001814127F1027454545393C4A494930019A
:10012000710905033649494936064949291E0036F1
:100130003600000056360000081422410014141442
:100140001414004122140802015109063249794170
:100150003E7E1111117E7F494949363E414141227F
:100160007F4141221C7F494949417F090909013EDC
:100170004149497A7F0808087F00417F41002040BB
:10018000413F017F081422417F404040407F020CE4
:10019000027F7F0408107F3E4141413E7F090909EB
:1001A000063E4151215E7F09192946464949493198
:1001B00001017F01013F4040403F1F2040201F3F81
:1001C0004038403F63140814630708700807615102
:1001D000494543007F41410002040810200041418D
:1001E0007F0004020102044040404040000102043C
:1001F0000020545454787F484444383844444420C0
:10020000384444487F3854545418087E0901020C7D
:100210005252523E7F0804047800447D4000204042
:10022000443D007F1028440000417F40007C0418BA
:1002300004787C0804047838444444387C1414144A
:1002400008081414187C7C080404084854545420EA
:10025000043F4440203C4040207C1C2040201C3C6B
:100260004030403C44281028440C5050503C4464DA
:10027000544C44000836410000007F000000413625
:1002800008001008081008784641467811241FBE5F
:10029000CFEFDAE0DEBFCDBF11E0A0E0B1E0E2E8F1
:1002A000F1E202C005900D92A03CB107D9F713E02E
:1002B000A0ECB1E001C01D92AB3DB107E1F73AD42B
:1002C0000C94BF109DCE84B58D7F84BD85B5877F8E
:1002D00085BD85B5856085BD85B58D7F85BDEEE61F
:1002E000F0E0808181608083789408952091C0013E
:1002F0003091C101280F391F3093C1012093C001F3
:1003000008957F928F929F92AF92BF92CF92DF9289
:10031000EF92FF920F931F93CF93DF935B01809037
:10032000080190900901C0900601D09007018C014E
:100330007724C0E0D0E031C0F801E080F180F50121
:100340006081718182819381F701208131814281B5
:1003500053810E943D0C0E94A60C6E5F7F4F65305A
:100360007105C0F4F5016481758186819781F7017B
:1003700024813581468157810E943D0C0E94A60C44
:100380006E5F7F4F6530710528F40894C108D1086D
:100390007724739421960E5F1F4FC815D90564F218
:1003A000D0920701C0920601872DDF91CF911F9156
:1003B0000F91FF90EF90DF90CF90BF90AF909F9004
:1003C0008F907F9008958F929F92AF92BF92CF921D
:1003D000DF92EF92FF920F931F93CF93DF935C0115
:1003E000FB0180E090E0A8E1B2E480839183A283E6
:1003F000B38380E090E0A8EDB1E484839583A68385
:10040000B783452B09F094C04501CC24DD244FC0AF
:100410000E94551069E170E00E94AE0F8C010F5FE1
:100420001F4F0E9455106EE070E00E94AE0F7C01DD
:100430000894E11CF11C0E945510EC010E9455101B
:10044000FC0100FD02C0980108C0CE0164E170E02B
:100450000E94AE0F9C01235D3F4FE0FC02C0E7010C
:1004600007C0CF0169E070E00E94AE0FEC01A296D8
:10047000F401019111914F01B901882777FD809511
:10048000982F0E94D90CF801608371838283938333
:10049000BE01882777FD8095982F0E94D90CF8011E
:1004A00064837583868397830894C11CD11C8091D3
:1004B0000A0190910B01C816D9060CF4A9CF6091DE
:1004C000080170910901DC01AA0FBB1FAA0DBB1D19
:1004D0000F2EF0E0AF2EF0E0BF2EF0E8CF2EFFEBB6
:1004E000DF2EF02D0F2EF0E0EF2EF0E0FF2EF8E4DF
:1004F0000F2FF2E41F2FF02D20E030E040E050E01D
:1005000013C0ED91FD91A082B182C282D382E482B8
:10051000F58206831783258736874787508B218B83
:10052000328B438B548B01968617970754F359C02F
:10053000CC24DD24992493940E94551069E170E045
:100540000E94AE0F8C010F5F1F4F0E9455106EE08E
:1005500070E00E94AE0F7C010894E11CF11C0E9427
:100560005510EC010E945510FC0100FD02C09801DD
:1005700008C0CE0164E170E00E94AE0F9C01235DD3
:100580003F4FE0FC02C0E70107C0CF0169E070E027
:100590000E94AE0FEC01A296F501019111915F014D
:1005A000B901882777FD8095982F0E94D90CF80112
:1005B0006083718382839383BE01882777FD809552
:1005C000982F0E94D90CF8016483758386839783E2
:1005D00092860894C11CD11CF8E0CF16D10409F012
:1005E000ABCFDF91CF911F910F91FF90EF90DF90F4
:1005F000CF90BF90AF909F908F9008951F920F92D1
:100600000FB60F9211242F933F934F935F936F93E5
:100610007F938F939F93AF93BF93EF93FF93A89A8A
:100620008091C6019091C70101969093C701809374
:10063000C6018091C6019091C70186399105A4F148
:100640001092C7011092C601E091C001F091C10162
:100650003196F093C101E093C001CF016AE070E0F0
:100660000E94AE0F9C01009771F41092C10110928C
:10067000C0018091C2019091C30101969093C30182
:100680008093C2010FC03B976CF08091C2019091A2
:10069000C30101969093C3018093C2013093C101BD
:1006A0002093C0010E94510E8091C6019091C70114
:1006B0008A35910544F08091C801882321F0109279
:1006C000C8011092C901FF91EF91BF91AF919F9125
:1006D0008F917F916F915F914F913F912F910F90EB
:1006E0000FBE0F901F90189580E060E040E30E94DD
:1006F000C80D86E460E040E30E94C80D80E060E041
:1007000046E40E94DA0D8FE260E046E40E94DA0DD2
:1007100080E091E067E440E00E943C0E8091060199
:10072000805D68E44AE00E94EC0D83E091E067E4BC
:1007300044E10E943C0E8091C201805D67E44EE17D
:100740000E94EC0D8091C001805D6DE44EE10C943F
:10075000EC0D2F923F924F925F926F927F928F9209
:100760009F92AF92BF92CF92DF92EF92FF920F9340
:100770001F93DF93CF93CDB7DEB7E8970FB6F8940A
:10078000DEBF0FBECDBF0E948D0D809108019091FC
:10079000090125E130E0AC01429FC001439F900D6B
:1007A000529F900D1124ADB7BEB7A81BB90B0FB661
:1007B000F894BEBF0FBEADBF6DB67EB60894611C87
:1007C000711CDE011196E5E1F1E083E001900D92EC
:1007D0008150E1F7DE011496E2E1F1E083E001905F
:1007E0000D928150E1F7DE011796EFE0F1E083E032
:1007F00001900D928150E1F7DE011A96ECE0F1E0F4
:1008000083E001900D928150E1F780910801909171
:100810000901880F991FEDB7FEB7E81BF90B0FB65A
:10082000F894FEBF0FBEEDBF8DB79EB701968FAB9C
:1008300098AF1C017301CC24DD240F2EF0E08F2E25
:10084000F0E09F2EF0E0AF2EF0E0BF2EF02D6CC058
:100850000E94551064E670E00E94AE0F8C010E9469
:1008600055102C01C80163E070E00E94AE0F892B87
:1008700041F4D7011D968D929D92AD92BC925097F6
:1008800013C000FD0CC020E030E040E85FEBD70172
:100890001D962D933D934D935C93509705C0F701A2
:1008A00085869686A786B08AD7011D966D917D9123
:1008B0008D919C91509720E030E040E050E00E9404
:1008C000A20C8823C1F4C20164E670E00E94AE0F5E
:1008D00080FD05C020E030E040E85FEB04C020E090
:1008E00030E040E85FE3D70151962D933D934D935F
:1008F0005C93549705C0F701818A928AA38AB48ACF
:1009000025E130E0C29EC001C39E900DD29E900DA5
:100910001124860D971DD1018D939D931D0108947F
:10092000C11CD11CE20EF31E8091080190910901B7
:10093000C816D9060CF48CCF362CA72C7DE0E72EF8
:10094000F12CEC0EFD1E62E2C62ED12CCC0EDD1E6B
:10095000C301BE016C5F7F4FA70196018E01095F45
:100960001F4F03D3C701BE016F5F7F4F4EEC51E0B5
:100970009E01265F3F4FC0D481E08093D801BB2405
:1009800058E0652E712C1E2DEF2C0C2DCD2C43E044
:10099000842E912CFF24F39430E9432E31E0532E22
:1009A0007CD190930B0180930A011816190614F15B
:1009B00070920B0160920A010E948D0D73D18FA974
:1009C00098AD612F7E2D41E050E0FDDC802F9C2D05
:1009D000612F7E2D45D6D9D047D1909207018092C4
:1009E00006011092C1011092C0011092C301109231
:1009F000C201BB248091C4019091C50101969093DE
:100A0000C5018093C40170DE802F9C2D6FA978AD45
:100A1000BFD6812F9E2D6091C9014EEC51E0C4D309
:100A20008093C801BB2031F0812F9E2D602F7C2D3B
:100A3000B2D4DFD58091C901882321F0A3D51092CB
:100A4000D8010FC08091C801882319F0F092D80115
:100A500008C08EEC91E0612F7E2D40E046D580935A
:100A6000C9018091C4019091C5016AE070E00E94C3
:100A7000AE0F892B19F48FA998ADB9D1812F9E2D76
:100A80000E94E60E832D9A2D602F7C2D4EEC51E0B6
:100A90008BD1802F9C2D612F7E2D4B2DBAD6B82E59
:100AA0008FA998AD612F7E2D2CDC882369F08FA94A
:100AB00098AD612F7E2D40E050E085DC802F9C2D8D
:100AC000612F7E2DCDD5BB24809106019091070129
:100AD0000197039710F10E948D0D70920B016092A7
:100AE0000A01E0D08FA998AD612F7E2D41E050E042
:100AF0006ADC802F9C2D612F7E2DB2D527D0B4D0FB
:100B000090920701809206011092C1011092C001DB
:100B10001092C3011092C201BB240E94510E88EEB4
:100B200093E0F2013197F1F70197D9F72B982A98C2
:100B3000F4D736CFE1E6F0E080E8808381E080837F
:100B400093D0C1DB06DE80E090E0089588E191E07B
:100B500060E04AE00E943C0E8AE291E06AE044E1F3
:100B60000E943C0E81E391E06AE043E20E943C0E69
:100B70000E94510E2A9A80E197E220E931E0F901C2
:100B80003197F1F70197D9F708958FE391E060E08D
:100B90004AE00E943C0E80E591E060E049E10E945D
:100BA0003C0E8FE591E06AE043E20E943C0E0E9419
:100BB000510E2A9A80E197E220E931E0F90131975C
:100BC000F1F70197D9F708958CE691E060E042E0F3
:100BD0000E943C0E8DE791E060E04CE00E943C0EEC
:100BE00086E891E060E049E10E943C0E8FE891E0E8
:100BF00060E048E20E943C0E0C94510E80EA91E0C5
:100C00006CE140E10E943C0E0E94510E88E893E1A5
:100C100020E931E0F9013197F1F70197D9F77DD754
:100C200086EA91E06CE140E10E943C0E0E94510E88
:100C300088E893E120E931E0F9013197F1F7019774
:100C4000D9F76BD78CEA91E06CE140E10E943C0E51
:100C50000E94510E88E893E120E931E0F9013197D3
:100C6000F1F70197D9F759C78CE084B980E48AB9C4
:100C700015B81BB88FE30E94830E4FD7A5DF2B9AC0
:100C800080E090E001C00196199BFDCF0E945810B2
:100C900044D70E94510E2B98B1CF8091B201909110
:100CA000B301089588E090E09093B3018093B2017E
:100CB0000895FC016115710531F48091CA0190918C
:100CC000CB01019708C06130710549F48091CA01D8
:100CD0009091CB0101969093CB018093CA018091B2
:100CE000CA019091CB01049724F01092CB0110928D
:100CF000CA018091CA019091CB0197FF06C083E0A1
:100D000090E09093CB018093CA018091CA019091A9
:100D1000CB0181309105C9F0823091051CF4892BFB
:100D200039F0089582309105E9F00397E1F52BC081
:100D300080E090E0A0E0B0E085879687A787B08B41
:100D400080E090E0A0E8BFEB19C080E090E0A0E870
:100D5000BFE385879687A787B08B80E090E0A0E00F
:100D6000B0E00CC080E090E0A0E0B0E0858796871E
:100D7000A787B08B80E090E0A0E8BFE3818B928BE7
:100D8000A38BB48B089580E090E0A0E8BFEB85874B
:100D90009687A787B08B80E090E0A0E0B0E0818BE1
:100DA000928BA38BB48B0895CF92DF92EF92FF9238
:100DB0000F931F93CF93DF938C017B016A01C0E0F7
:100DC000D0E0C8018C0F9D1F0E94E60E6596C83AC0
:100DD000D105B9F7C701FAD7C601F8D7DF91CF918E
:100DE0001F910F91FF90EF90DF90CF9008956F9239
:100DF0007F928F929F92AF92BF92CF92DF92EF92AB
:100E0000FF920F931F93CF93DF934C0166247724B7
:100E10000E94551064E670E00E94AE0F8530910587
:100E200034F4F4018081918160E070E008C08A3080
:100E3000910534F4F4018081918161E070E039DF43
:100E4000F401C081D181A880B980CA80DB80C6014D
:100E5000B50120E030E044E852E45BD6181664F4B3
:100E60006D857E858F85988920E030E040E85FE3DE
:100E700069D5882309F45EC0C601B50120E030E0E1
:100E800040E050E45FD5882364F46D857E858F85CE
:100E9000988920E030E040E85FEB54D5882309F4DE
:100EA00049C0EC80FD800E811F81C801B70120E0A0
:100EB00030E04CE252E42DD618165CF469897A8948
:100EC0008B899C8920E030E040E85FE33BD58823B4
:100ED00089F1C801B70120E030E040E050E432D5AC
:100EE00088235CF469897A898B899C8920E030E0C9
:100EF00040E85FEB27D58823E9F0C601B5012D85D1
:100F00003E854F855889BAD4688379838A839B83C9
:100F1000F40100811181F8016481758186819781D6
:100F20002189328943895489A9D4F801648375835E
:100F3000868397830894611C711C82E090E0880E80
:100F4000991E98E06916710409F062CFDF91CF9184
:100F50001F910F91FF90EF90DF90CF90BF90AF90D7
:100F60009F908F907F906F9008953F924F925F92E5
:100F70006F927F928F929F92AF92BF92CF92DF92A9
:100F8000EF92FF920F931F93CF93DF933B014901A1
:100F90002801EC01AA24BB24332433940E94551069
:100FA00069E170E0DBD77C010894E11CF11C0E9430
:100FB00055106EE070E0D2D76C010894C11CD11CB2
:100FC0000E9455108C010E9455109C01E0FC02C04B
:100FD000EE2D06C0C80164E170E0C0D7E82FE35DE4
:100FE000C0FC02C04C2D06C0C90169E070E0B6D754
:100FF000482F4E5DCE016E2F23E003E07301B6D67D
:101000003A86CE01E3D60894A11CB11C659688E00F
:10101000A816B10409F0C2CF0E9455108C010E949D
:1010200055109C01C80163E470E098D7FC0131962B
:10103000C9016DE270E092D7AC014F5F5F4FC40110
:101040006E2F23E003E0720191D6C401BFD629D6EA
:10105000DF91CF911F910F91FF90EF90DF90CF9094
:10106000BF90AF909F908F907F906F905F904F90C8
:101070003F900895FC0180E090E0A0E0B0E0808324
:101080009183A283B38380E090E0A8E4B2E48483F8
:101090009583A683B783128682E090E027D980915A
:1010A000B2019091B30101979093B3018093B20183
:1010B0000895FC016115710531F48091CC01909186
:1010C000CD01019708C06130710549F48091CC01D0
:1010D0009091CD0101969093CD018093CC018091A8
:1010E000CC019091CD01049724F01092CD01109283
:1010F000CC018091CC019091CD0197FF06C083E097
:1011000090E09093CD018093CC018091CC0190919F
:10111000CD0181309105C9F0823091051CF4892BF5
:1011200039F0089582309105E9F00397E1F52BC07D
:1011300080E090E0A0E0B0E085879687A787B08B3D
:1011400080E090E0A0E8BFEB19C080E090E0A0E86C
:10115000BFE385879687A787B08B80E090E0A0E00B
:10116000B0E00CC080E090E0A0E0B0E0858796871A
:10117000A787B08B80E090E0A0E8BFE3818B928BE3
:10118000A38BB48B089580E090E0A0E8BFEB858747
:101190009687A787B08B80E090E0A0E0B0E0818BDD
:1011A000928BA38BB48B08959F92AF92BF92CF92F4
:1011B000DF92EF92FF920F931F93CF93DF93EC0197
:1011C000189902C0199B18C0189B0AC0199B08C027
:1011D000662331F0CE01BA01BCD1992493940DC09D
:1011E000199B04C0CE0161E070E005C0189B04C0EB
:1011F000CE0160E070E05DDF9924AC80BD80CE80E0
:10120000DF80C601B50120E030E040E050E49AD331
:10121000882364F469897A898B899C8920E030E08D
:1012200040E85FEB8FD3882309F459C0E880F98048
:101230000A811B81C801B70120E030E040E050E4A2
:1012400081D3882364F46D857E858F85988920E01D
:1012500030E040E85FEB76D3882309F440C0C80152
:10126000B70120E030E042E852E453D418165CF4B1
:101270006D857E858F85988920E030E040E85FE3CA
:1012800061D3882361F1C601B50120E030E04CE272
:1012900052E43FD418165CF469897A898B899C8959
:1012A00020E030E040E85FE34DD38823C1F0C8017F
:1012B000B7012D853E854F855889E0D268837983B3
:1012C0008A839B836C817D818E819F8129893A8964
:1012D0004B895C89D3D26C837D838E839F83892DD8
:1012E000DF91CF911F910F91FF90EF90DF90CF9002
:1012F000BF90AF909F9008958F929F92AF92BF92B0
:10130000CF92DF92EF92FF920F931F936C017B01BC
:101310005A01490162E247E123E003E027D580E07A
:1013200090E0A0E0B0E0F60185879687A787B08BB4
:1013300080E090E0A0E8BFEB818B928BA38BB48B15
:1013400081E08287C60142D5B0D68C01AED69C0121
:10135000C80163E470E002D6FC013196C9016DE278
:1013600070E0FCD5AC014F5F5F4FC5016E2F23E0ED
:1013700003E07401FBD4C50129D593D481E090E04A
:101380001F910F91FF90EF90DF90CF90BF90AF90A3
:101390009F908F900895CF92DF92EF92FF920F93DC
:1013A0001F93CF93DF93EC016B01ED84FE840F85D7
:1013B0001889C801B70120E030E040E85FEBC2D2F5
:1013C0008823A9F469897A898B899C8920E030E097
:1013D00040E050E0B7D2882351F4688179818A8156
:1013E0009B8120E030E040E450E447D21DC0C801BA
:1013F000B70120E030E040E85FE3A4D2882311F594
:1014000069897A898B899C8920E030E040E050E04E
:1014100099D28823B9F4688179818A819B8120E0FF
:1014200030E040E450E42AD2F60160837183828385
:1014300093838C819D81AE81BF8184839583A683B4
:10144000B7834AC0C801B70120E030E040E050E077
:1014500079D2882309F040C0E988FA880B891C8971
:10146000C801B70120E030E040E85FEB6BD2882391
:1014700099F488819981AA81BB81F6018083918347
:10148000A283B3836C817D818E819F8120E030E0D7
:1014900040E450E4F2D11BC0C801B70120E030E0C5
:1014A00040E85FE34FD28823B9F488819981AA810B
:1014B000BB81F60180839183A283B3836C817D819C
:1014C0008E819F8120E030E040E450E4D7D1F601E6
:1014D0006483758386839783DF91CF911F910F91EA
:1014E000FF90EF90DF90CF900895EF92FF921F93BF
:1014F000CF93DF937C01EB01442319F56881798157
:101500008A819B81F7012081318142815381B5D14C
:101510001DD26E5F7F4F6530710510F010E012C074
:1015200010E06C817D818E819F81F701248135815E
:1015300046815781A2D10AD26E5F7F4F6530710517
:1015400008F411E0812FDF91CF911F91FF90EF9070
:101550000895CF93DF93FB01EC0188819981AA81E3
:10156000BB8180839183A283B3838C819D81AE8173
:10157000BF8184839583A683B78381E08287DF91CF
:10158000CF910895CF92DF92EF92FF920F93DF9366
:10159000CF93CDB7DEB768970FB6F894DEBF0FBE16
:1015A000CDBFDE011196E6EBF1E083E001900D92F4
:1015B0008150E1F784E0C82ED12CCC0EDD1EC6018F
:1015C0006DE447E223E003E07E010894E11CF11C96
:1015D000CDD3C601FBD368960FB6F894DEBF0FBE1D
:1015E000CDBFCF91DF910F91FF90EF90DF90CF9023
:1015F0000895CF92DF92EF92FF920F93DF93CF93F4
:10160000CDB7DEB768970FB6F894DEBF0FBECDBF7B
:10161000DE011196E9EBF1E083E001900D9281503B
:10162000E1F794E0C92ED12CCC0EDD1EC60168E492
:1016300047E223E003E07E010894E11CF11C96D30D
:10164000C601C4D368960FB6F894DEBF0FBECDBFF7
:10165000CF91DF910F91FF90EF90DF90CF900895A1
:101660002F923F924F925F926F927F928F929F92B2
:10167000AF92BF92CF92DF92EF92FF920F931F93A0
:10168000CF93DF932C011B0110D563E470E066D487
:101690008C010BD56DE270E061D4EC01B8018827B4
:1016A00077FD8095982F85D13B014C01F101E080B9
:1016B000F18002811381C801B70120E030E040E2EF
:1016C00051E4DBD09B01AC01C401B30122D2181656
:1016D0000CF037C0C801B70120E030E040E251E42F
:1016E000CDD09B01AC01C401B3012CD188234CF5B2
:1016F000BE01882777FD8095982F5BD15B016C0137
:10170000F101E480F58006811781C801B70120E06E
:1017100030E040E251E4B1D09B01AC01C601B5011B
:10172000F8D1181674F4C801B70120E030E040E2A7
:1017300051E4A4D09B01AC01C601B50103D187FDE2
:10174000A3CFF2016082718282829382BE018827D8
:1017500077FD8095982F2DD1F20164837583868360
:10176000978381E08287C20131D3DF91CF911F91AE
:101770000F91FF90EF90DF90CF90BF90AF909F9030
:101780008F907F906F905F904F903F902F90089533
:10179000CF92DF92EF92FF920F931F93CF93DF933D
:1017A0007C016B0100E010E0F601E00FF11FC08149
:1017B000D181F70160817181828193812881398192
:1017C0004A815B815AD0C2D06E5F7F4F6530710510
:1017D00090F4F70164817581868197812C813D8128
:1017E0004E815F814AD0B2D06E5F7F4F6530710508
:1017F00010F4CE013FDC0E5F1F4F00311105A1F642
:10180000DF91CF911F910F91FF90EF90DF90CF90DC
:1018100008950F931F93CF93DF938C01EB01442323
:1018200021F5688179818A819B81F801208131814C
:101830004281538122D08AD06E5F7F4F653071051F
:10184000B0F46C817D818E819F81F8012481358186
:101850004681578112D07AD06E5F7F4F6530710517
:1018600030F483E090E00E94760181E001C080E0E6
:10187000DF91CF911F910F9108955058BB27AA2750
:101880000ED00DC1FED030F003D120F031F49F3FD7
:1018900011F41EF4F3C00EF4E095E7FBE9C0E92F64
:1018A0000FD180F3BA17620773078407950718F002
:1018B00071F49EF527C10EF4E0950B2EBA2FA02DE2
:1018C0000B01B90190010C01CA01A0011124FF27ED
:1018D000591B99F0593F50F4503E68F11A16F040E8
:1018E000A22F232F342F4427585FF3CF46953795E7
:1018F0002795A795F0405395C9F77EF41F16BA0BAC
:10190000620B730B840BBAF09150A1F0FF0FBB1F59
:10191000661F771F881FC2F70EC0BA0F621F731FA2
:10192000841F48F4879577956795B795F7959E3FFF
:1019300008F0B3CF9395880F08F09927EE0F97958D
:101940008795089571D008F481E0089504D06894D3
:10195000B111D9C00895BCD088F09F5790F0B92F2D
:101960009927B751A0F0D1F0660F771F881F991FF4
:101970001AF0BA95C9F712C0B13081F0C3D0B1E006
:101980000895C0C0672F782F8827B85F39F0B93F16
:10199000CCF3869577956795B395D9F73EF49095F6
:1019A0008095709561957F4F8F4F9F4F0895E89474
:1019B00009C097FB3EF490958095709561957F4F97
:1019C0008F4F9F4F9923A9F0F92F96E9BB27939545
:1019D000F695879577956795B795F111F8CFFAF455
:1019E000BB0F11F460FF1BC06F5F7F4F8F4F9F4F86
:1019F00016C0882311F096E911C0772321F09EE8E4
:101A0000872F762F05C0662371F096E8862F70E049
:101A100060E02AF09A95660F771F881FDAF7880F23
:101A20009695879597F90895990F0008550FAA0B79
:101A3000E0E8FEEF16161706E807F907C0F01216E1
:101A40001306E407F50798F0621B730B840B950BE4
:101A500039F40A2661F0232B242B252B21F4089539
:101A60000A2609F4A140A6958FEF811D811D0895D6
:101A700097F99F6780E870E060E008959FEF80EC41
:101A8000089500240A9416161706180609060895E4
:101A900000240A9412161306140605060895092E4A
:101AA0000394000C11F4882352F0BB0F40F4BF2BB9
:101AB00011F460FF04C06F5F7F4F8F4F9F4F0895F9
:101AC00057FD9058440F551F59F05F3F71F04795EF
:101AD000880F97FB991F61F09F3F79F087950895D4
:101AE000121613061406551FF2CF4695F1DF08C0F3
:101AF000161617061806991FF1CF86957105610510
:101B000008940895E894BB2766277727CB0197F9B7
:101B100008958ADF08F48FEF0895E3EEF1E0119263
:101B200083E0EB3DF807D9F70895843580F56033FD
:101B300070F5262F269526952695677090E044230C
:101B400099F0E4E52E9FF0011124E80FF91FED5103
:101B5000FE4F81E090E002C0880F991F6A95E2F77E
:101B60002081282B20830895E4E52E9FF001112485
:101B7000E80FF91FED51FE4F81E090E002C0880FA1
:101B8000991F6A95E2F78095208128232083089584
:101B9000FF920F931F93F82E042F162F05C08F2D41
:101BA000612F41E0C2DF1F5F0117C8F71F910F913E
:101BB000FF900895FF920F931F93F82E042F162F76
:101BC00005C0812F6F2D41E0B0DF1F5F0117C8F7FF
:101BD0001F910F91FF9008958F929F92AF92BF92A5
:101BE000CF92DF92EF92FF920F931F93CF93DF93E9
:101BF000D62EC42E95E0899FC00111248C01045F6C
:101C00001F4FF1E08F2E912CE1E1AE2EE0E0BE2ED1
:101C1000A80EB91E1DC06C2D6C0FA4010C2E02C0A5
:101C2000440F551F0A94E2F74E215F210C2E02C08B
:101C3000559547950A94E2F78D2D77DF2196C830A8
:101C4000D10549F70F5F1F4FD3940A151B0539F0D3
:101C5000C0E0D0E0F8018491E82EFF24DCCFDF91D2
:101C6000CF911F910F91FF90EF90DF90CF90BF9099
:101C7000AF909F908F9008950F931F93CF93DF9312
:101C8000EC01162F042F05C0612F402FA5DF2196F0
:101C90001B5F88818823C1F7DF91CF911F910F913E
:101CA0000895CF93DF9380E060E055D0C3EED1E09C
:101CB00081E0699107D083E0CB3DD807C9F7DF9178
:101CC000CF91089595B18295880F807E9F7D982B46
:101CD00095B95F9827E030E070E08F98CB01022E35
:101CE00002C0959587950A94E2F780FF02C02E9A6C
:101CF00001C02E988F9A215030408FEF2F3F380728
:101D000061F75F9A08951F93182F579A249A259A7E
:101D1000269A879A2C985F9A2C9A80E061E2D2DF0B
:101D2000106880E0612FCEDF80E064E0CBDF80E0F0
:101D300063E1C8DF80E06CE0C5DF80E060E2C2DF25
:101D400080E06CE0BFDF80E060E4BCDF80E060E862
:101D5000B9DF1F9108951F93182F606480E0B2DFF0
:101D6000106880E0612FAEDF1F9108958F929F92DF
:101D7000AF92BF92CF92DF92EF92FF920F931F9399
:101D80004C01A42E122F70E080E090E010DEF401F0
:101D90006083718382839383BB24CC24DD24C601BA
:101DA000B50105DEF401648375838683978310870C
:101DB0000187F486E3861F910F91FF90EF90DF90EB
:101DC000CF90BF90AF909F908F9008952F923F92A9
:101DD0004F925F927F928F929F92AF92BF92CF92DB
:101DE000DF92EF92FF920F931F93DF93CF9300D078
:101DF00000D0CDB7DEB72C01DC011A968C91882378
:101E000009F496C0222433241A82198287C0E981FA
:101E1000FA81BF01882777FD8095982FCADDD2010E
:101E200014962D913D914D915C91179727DD5B01A3
:101E30006C0120E030E040E050E084DD87FD68C0C8
:101E4000C601B50120E030E040E452E462DE87FFE5
:101E50006FC01C821B8245C0D2011B96ED91FC9184
:101E60001C97E20DF31D7080EB81FC81BF01882778
:101E700077FD8095982F9DDDD2012D913D914D915B
:101E80005C91FCDC7B018C0120E030E040E050E024
:101E900040DE8823CCF0C801B70120E030E048EAFA
:101EA00052E450DD882384F4782071F0C801B70132
:101EB00052DD7B018C01C601B5014DDD9B01AC01FA
:101EC0008E2D622F41E031DEEB81FC813196FC8367
:101ED000EB83CF0187709070892B39F40894211C13
:101EE000311C90E8892E912C02C095948794D201E0
:101EF00018968C9190E0EB81FC81E817F9070CF4BF
:101F0000ABCF87709070892B19F00894211C311C7D
:101F100029813A812F5F3F4F3A832983D201199655
:101F20008C9190E0E981FA81E817F9070CF46FCF02
:101F30000F900F900F900F90CF91DF911F910F9105
:101F4000FF90EF90DF90CF90BF90AF909F908F90D9
:101F50007F905F904F903F902F90089597FB092EB0
:101F600007260AD077FD04D00CD006D000201AF442
:101F7000709561957F4F0895F6F7909581959F4FE5
:101F80000895AA1BBB1B51E107C0AA1FBB1FA617C0
:101F9000B70710F0A61BB70B881F991F5A95A9F712
:101FA00080959095BC01CD0108952F923F924F925C
:101FB0005F926F927F928F929F92AF92BF92CF92D9
:101FC000DF92EF92FF920F931F93CF93DF93CDB7E2
:101FD000DEB7CA1BDB0B0FB6F894DEBF0FBECDBF5A
:101FE00009942A88398848885F846E847D848C842B
:101FF0009B84AA84B984C884DF80EE80FD800C8134
:102000001B81AA81B981CE0FD11D0FB6F894DEBF16
:102010000FBECDBFED010895A0E0B0E0E1E1F0E139
:10202000CCCFEC01A880B980CA80DB80A114B104B8
:10203000C104D10441F484E2A82E89EDB82E8BE5C9
:10204000C82E87E0D82EC601B5012DE133EF41E05F
:1020500050E058D027EA31E440E050E034D07B0132
:102060008C01C601B5012DE133EF41E050E04AD0CB
:10207000CA01B9012CEE34EF4FEF5FEF24D06E0DA3
:102080007F1D801F911F97FF04C0615070408040EA
:102090009048688379838A839B839B013F77C9013A
:1020A000CDB7DEB7EAE0A5CFB7CF8CEB91E0B4CFE8
:1020B000A0E0B0E08093BC019093BD01A093BE016D
:1020C000B093BF010895629FD001739FF001829F7A
:1020D000E00DF11D649FE00DF11D929FF00D839FB7
:1020E000F00D749FF00D659FF00D9927729FB00D54
:1020F000E11DF91F639FB00DE11DF91FBD01CF0167
:102100001124089597FB092E05260ED057FD04D003
:1021100014D00AD0001C38F4509540953095219584
:102120003F4F4F4F5F4F0895F6F79095809570950C
:1021300061957F4F8F4F9F4F0895A1E21A2EAA1BE2
:10214000BB1BFD010DC0AA1FBB1FEE1FFF1FA21767
:10215000B307E407F50720F0A21BB30BE40BF50B64
:10216000661F771F881F991F1A9469F760957095ED
:10217000809590959B01AC01BD01CF010895F89425
:02218000FFCF8F
:102182004C3A00533A00030008000800E0A0E04087
:1021920040E040E040A0E0A0596F75206C6F73747E
:1021A20020616C6C20796F7572006C6976657321A1
:1021B200002D2047414D45204F564552202D0043CA
:1021C2006F6E67726174756C6174696F6E732100F2
:1021D200596F75206B696C6C656420616C6C00745E
:1021E2006865207A6F6D62696573210042656E6A67
:1021F200616D696E204D63436F6C6D2D0050696394
:102202006B666F7264006E3838343737363200507E
:102212007265737320616E7920627574746F6E00DB
:102222002D2033202D002D2032202D002D20312075
:102232002D0008000800E0A0E04040E0010000009E
:00000001FF
